{
  "_format": "hh-sol-artifact-1",
  "contractName": "Instagram",
  "sourceName": "contracts/instagram.sol",
  "abi": [
    {
      "anonymous": false,
      "inputs": [
        {
          "indexed": false,
          "internalType": "uint256",
          "name": "id",
          "type": "uint256"
        },
        {
          "indexed": false,
          "internalType": "string",
          "name": "url",
          "type": "string"
        },
        {
          "indexed": false,
          "internalType": "string",
          "name": "description",
          "type": "string"
        },
        {
          "indexed": false,
          "internalType": "address payable",
          "name": "author",
          "type": "address"
        }
      ],
      "name": "PostCreated",
      "type": "event"
    },
    {
      "anonymous": false,
      "inputs": [
        {
          "indexed": false,
          "internalType": "uint256",
          "name": "id",
          "type": "uint256"
        },
        {
          "indexed": false,
          "internalType": "string",
          "name": "url",
          "type": "string"
        },
        {
          "indexed": false,
          "internalType": "string",
          "name": "description",
          "type": "string"
        },
        {
          "indexed": false,
          "internalType": "uint256",
          "name": "currentTip",
          "type": "uint256"
        },
        {
          "indexed": false,
          "internalType": "uint256",
          "name": "tipAmount",
          "type": "uint256"
        },
        {
          "indexed": false,
          "internalType": "address payable",
          "name": "author",
          "type": "address"
        }
      ],
      "name": "Tip",
      "type": "event"
    },
    {
      "inputs": [
        {
          "internalType": "uint256",
          "name": "_postId",
          "type": "uint256"
        }
      ],
      "name": "TipPost",
      "outputs": [],
      "stateMutability": "payable",
      "type": "function"
    },
    {
      "inputs": [
        {
          "internalType": "string",
          "name": "_url",
          "type": "string"
        },
        {
          "internalType": "string",
          "name": "_description",
          "type": "string"
        }
      ],
      "name": "createPost",
      "outputs": [],
      "stateMutability": "nonpayable",
      "type": "function"
    },
    {
      "inputs": [],
      "name": "imageCount",
      "outputs": [
        {
          "internalType": "uint256",
          "name": "",
          "type": "uint256"
        }
      ],
      "stateMutability": "view",
      "type": "function"
    },
    {
      "inputs": [],
      "name": "name",
      "outputs": [
        {
          "internalType": "string",
          "name": "",
          "type": "string"
        }
      ],
      "stateMutability": "view",
      "type": "function"
    },
    {
      "inputs": [
        {
          "internalType": "uint256",
          "name": "",
          "type": "uint256"
        }
      ],
      "name": "posts",
      "outputs": [
        {
          "internalType": "uint256",
          "name": "id",
          "type": "uint256"
        },
        {
          "internalType": "string",
          "name": "url",
          "type": "string"
        },
        {
          "internalType": "string",
          "name": "description",
          "type": "string"
        },
        {
          "internalType": "uint256",
          "name": "tipAmount",
          "type": "uint256"
        },
        {
          "internalType": "address payable",
          "name": "author",
          "type": "address"
        }
      ],
      "stateMutability": "view",
      "type": "function"
    }
  ],
  "bytecode": "0x60806040526040518060400160405280600981526020017f496e7374616772616d0000000000000000000000000000000000000000000000815250600090816200004a9190620002de565b5060006001553480156200005d57600080fd5b50620003c5565b600081519050919050565b7f4e487b7100000000000000000000000000000000000000000000000000000000600052604160045260246000fd5b7f4e487b7100000000000000000000000000000000000000000000000000000000600052602260045260246000fd5b60006002820490506001821680620000e657607f821691505b602082108103620000fc57620000fb6200009e565b5b50919050565b60008190508160005260206000209050919050565b60006020601f8301049050919050565b600082821b905092915050565b600060088302620001667fffffffffffffffffffffffffffffffffffffffffffffffffffffffffffffffff8262000127565b62000172868362000127565b95508019841693508086168417925050509392505050565b6000819050919050565b6000819050919050565b6000620001bf620001b9620001b3846200018a565b62000194565b6200018a565b9050919050565b6000819050919050565b620001db836200019e565b620001f3620001ea82620001c6565b84845462000134565b825550505050565b600090565b6200020a620001fb565b62000217818484620001d0565b505050565b5b818110156200023f576200023360008262000200565b6001810190506200021d565b5050565b601f8211156200028e57620002588162000102565b620002638462000117565b8101602085101562000273578190505b6200028b620002828562000117565b8301826200021c565b50505b505050565b600082821c905092915050565b6000620002b36000198460080262000293565b1980831691505092915050565b6000620002ce8383620002a0565b9150826002028217905092915050565b620002e98262000064565b67ffffffffffffffff8111156200030557620003046200006f565b5b620003118254620000cd565b6200031e82828562000243565b600060209050601f83116001811462000356576000841562000341578287015190505b6200034d8582620002c0565b865550620003bd565b601f198416620003668662000102565b60005b82811015620003905784890151825560018201915060208501945060208101905062000369565b86831015620003b05784890151620003ac601f891682620002a0565b8355505b6001600288020188555050505b505050505050565b6114ea80620003d56000396000f3fe60806040526004361061004a5760003560e01c806306fdde031461004f5780630b1e7f831461007a578063392338f5146100bb5780638e1df98f146100e457806392053b6314610100575b600080fd5b34801561005b57600080fd5b5061006461012b565b6040516100719190610b68565b60405180910390f35b34801561008657600080fd5b506100a1600480360381019061009c9190610bd4565b6101b9565b6040516100b2959493929190610c51565b60405180910390f35b3480156100c757600080fd5b506100e260048036038101906100dd9190610de7565b61031f565b005b6100fe60048036038101906100f99190610bd4565b610539565b005b34801561010c57600080fd5b50610115610a2b565b6040516101229190610e5f565b60405180910390f35b6000805461013890610ea9565b80601f016020809104026020016040519081016040528092919081815260200182805461016490610ea9565b80156101b15780601f10610186576101008083540402835291602001916101b1565b820191906000526020600020905b81548152906001019060200180831161019457829003601f168201915b505050505081565b60026020528060005260406000206000915090508060000154908060010180546101e290610ea9565b80601f016020809104026020016040519081016040528092919081815260200182805461020e90610ea9565b801561025b5780601f106102305761010080835404028352916020019161025b565b820191906000526020600020905b81548152906001019060200180831161023e57829003601f168201915b50505050509080600201805461027090610ea9565b80601f016020809104026020016040519081016040528092919081815260200182805461029c90610ea9565b80156102e95780601f106102be576101008083540402835291602001916102e9565b820191906000526020600020905b8154815290600101906020018083116102cc57829003601f168201915b5050505050908060030154908060040160009054906101000a900473ffffffffffffffffffffffffffffffffffffffff16905085565b600073ffffffffffffffffffffffffffffffffffffffff163373ffffffffffffffffffffffffffffffffffffffff160361038e576040517f08c379a000000000000000000000000000000000000000000000000000000000815260040161038590610f26565b60405180910390fd5b60008151116103d2576040517f08c379a00000000000000000000000000000000000000000000000000000000081526004016103c990610f92565b60405180910390fd5b600160008154809291906103e590610fe1565b91905055506040518060c001604052806001548152602001838152602001828152602001600081526020013373ffffffffffffffffffffffffffffffffffffffff168152602001600067ffffffffffffffff81111561044757610446610cbc565b5b6040519080825280602002602001820160405280156104755781602001602082028036833780820191505090505b508152506002600060015481526020019081526020016000206000820151816000015560208201518160010190816104ad91906111d5565b5060408201518160020190816104c391906111d5565b506060820151816003015560808201518160040160006101000a81548173ffffffffffffffffffffffffffffffffffffffff021916908373ffffffffffffffffffffffffffffffffffffffff16021790555060a0820151816005019080519060200190610531929190610a31565b509050505050565b600034905060008211801561055057506001548211155b61058f576040517f08c379a0000000000000000000000000000000000000000000000000000000008152600401610586906112f3565b60405180910390fd5b600081116105d2576040517f08c379a00000000000000000000000000000000000000000000000000000000081526004016105c990611385565b60405180910390fd5b3373ffffffffffffffffffffffffffffffffffffffff166002600084815260200190815260200160002060040160009054906101000a900473ffffffffffffffffffffffffffffffffffffffff1673ffffffffffffffffffffffffffffffffffffffff1603610676576040517f08c379a000000000000000000000000000000000000000000000000000000000815260040161066d906113f1565b60405180910390fd5b6000600260008481526020019081526020016000206040518060c0016040529081600082015481526020016001820180546106b090610ea9565b80601f01602080910402602001604051908101604052809291908181526020018280546106dc90610ea9565b80156107295780601f106106fe57610100808354040283529160200191610729565b820191906000526020600020905b81548152906001019060200180831161070c57829003601f168201915b5050505050815260200160028201805461074290610ea9565b80601f016020809104026020016040519081016040528092919081815260200182805461076e90610ea9565b80156107bb5780601f10610790576101008083540402835291602001916107bb565b820191906000526020600020905b81548152906001019060200180831161079e57829003601f168201915b50505050508152602001600382015481526020016004820160009054906101000a900473ffffffffffffffffffffffffffffffffffffffff1673ffffffffffffffffffffffffffffffffffffffff1673ffffffffffffffffffffffffffffffffffffffff168152602001600582018054806020026020016040519081016040528092919081815260200182805480156108a957602002820191906000526020600020905b8160009054906101000a900473ffffffffffffffffffffffffffffffffffffffff1673ffffffffffffffffffffffffffffffffffffffff168152602001906001019080831161085f575b50505050508152505090506000816080015190508073ffffffffffffffffffffffffffffffffffffffff166108fc849081150290604051600060405180830381858888f19350505050158015610903573d6000803e3d6000fd5b508282606001516109149190611411565b826060018181525050816002600086815260200190815260200160002060008201518160000155602082015181600101908161095091906111d5565b50604082015181600201908161096691906111d5565b506060820151816003015560808201518160040160006101000a81548173ffffffffffffffffffffffffffffffffffffffff021916908373ffffffffffffffffffffffffffffffffffffffff16021790555060a08201518160050190805190602001906109d4929190610a31565b509050507fdf26e74da445a0fda0162a6bc3d37fc2b3b865438a52dd40cfaa78a2bc79c93a848360200151846040015185606001518786604051610a1d96959493929190611445565b60405180910390a150505050565b60015481565b828054828255906000526020600020908101928215610aaa579160200282015b82811115610aa95782518260006101000a81548173ffffffffffffffffffffffffffffffffffffffff021916908373ffffffffffffffffffffffffffffffffffffffff16021790555091602001919060010190610a51565b5b509050610ab79190610abb565b5090565b5b80821115610ad4576000816000905550600101610abc565b5090565b600081519050919050565b600082825260208201905092915050565b60005b83811015610b12578082015181840152602081019050610af7565b60008484015250505050565b6000601f19601f8301169050919050565b6000610b3a82610ad8565b610b448185610ae3565b9350610b54818560208601610af4565b610b5d81610b1e565b840191505092915050565b60006020820190508181036000830152610b828184610b2f565b905092915050565b6000604051905090565b600080fd5b600080fd5b6000819050919050565b610bb181610b9e565b8114610bbc57600080fd5b50565b600081359050610bce81610ba8565b92915050565b600060208284031215610bea57610be9610b94565b5b6000610bf884828501610bbf565b91505092915050565b610c0a81610b9e565b82525050565b600073ffffffffffffffffffffffffffffffffffffffff82169050919050565b6000610c3b82610c10565b9050919050565b610c4b81610c30565b82525050565b600060a082019050610c666000830188610c01565b8181036020830152610c788187610b2f565b90508181036040830152610c8c8186610b2f565b9050610c9b6060830185610c01565b610ca86080830184610c42565b9695505050505050565b600080fd5b600080fd5b7f4e487b7100000000000000000000000000000000000000000000000000000000600052604160045260246000fd5b610cf482610b1e565b810181811067ffffffffffffffff82111715610d1357610d12610cbc565b5b80604052505050565b6000610d26610b8a565b9050610d328282610ceb565b919050565b600067ffffffffffffffff821115610d5257610d51610cbc565b5b610d5b82610b1e565b9050602081019050919050565b82818337600083830152505050565b6000610d8a610d8584610d37565b610d1c565b905082815260208101848484011115610da657610da5610cb7565b5b610db1848285610d68565b509392505050565b600082601f830112610dce57610dcd610cb2565b5b8135610dde848260208601610d77565b91505092915050565b60008060408385031215610dfe57610dfd610b94565b5b600083013567ffffffffffffffff811115610e1c57610e1b610b99565b5b610e2885828601610db9565b925050602083013567ffffffffffffffff811115610e4957610e48610b99565b5b610e5585828601610db9565b9150509250929050565b6000602082019050610e746000830184610c01565b92915050565b7f4e487b7100000000000000000000000000000000000000000000000000000000600052602260045260246000fd5b60006002820490506001821680610ec157607f821691505b602082108103610ed457610ed3610e7a565b5b50919050565b7f496e76616c696420616464726573730000000000000000000000000000000000600082015250565b6000610f10600f83610ae3565b9150610f1b82610eda565b602082019050919050565b60006020820190508181036000830152610f3f81610f03565b9050919050565b7f4465736372697074696f6e206973207265717569726564000000000000000000600082015250565b6000610f7c601783610ae3565b9150610f8782610f46565b602082019050919050565b60006020820190508181036000830152610fab81610f6f565b9050919050565b7f4e487b7100000000000000000000000000000000000000000000000000000000600052601160045260246000fd5b6000610fec82610b9e565b91507fffffffffffffffffffffffffffffffffffffffffffffffffffffffffffffffff820361101e5761101d610fb2565b5b600182019050919050565b60008190508160005260206000209050919050565b60006020601f8301049050919050565b600082821b905092915050565b60006008830261108b7fffffffffffffffffffffffffffffffffffffffffffffffffffffffffffffffff8261104e565b611095868361104e565b95508019841693508086168417925050509392505050565b6000819050919050565b60006110d26110cd6110c884610b9e565b6110ad565b610b9e565b9050919050565b6000819050919050565b6110ec836110b7565b6111006110f8826110d9565b84845461105b565b825550505050565b600090565b611115611108565b6111208184846110e3565b505050565b5b818110156111445761113960008261110d565b600181019050611126565b5050565b601f8211156111895761115a81611029565b6111638461103e565b81016020851015611172578190505b61118661117e8561103e565b830182611125565b50505b505050565b600082821c905092915050565b60006111ac6000198460080261118e565b1980831691505092915050565b60006111c5838361119b565b9150826002028217905092915050565b6111de82610ad8565b67ffffffffffffffff8111156111f7576111f6610cbc565b5b6112018254610ea9565b61120c828285611148565b600060209050601f83116001811461123f576000841561122d578287015190505b61123785826111b9565b86555061129f565b601f19841661124d86611029565b60005b8281101561127557848901518255600182019150602085019450602081019050611250565b86831015611292578489015161128e601f89168261119b565b8355505b6001600288020188555050505b505050505050565b7f506f737420646f6573206e6f7420657869737400000000000000000000000000600082015250565b60006112dd601383610ae3565b91506112e8826112a7565b602082019050919050565b6000602082019050818103600083015261130c816112d0565b9050919050565b7f54697020616d6f756e74206d7573742062652067726561746572207468616e2060008201527f3000000000000000000000000000000000000000000000000000000000000000602082015250565b600061136f602183610ae3565b915061137a82611313565b604082019050919050565b6000602082019050818103600083015261139e81611362565b9050919050565b7f596f752063616e6e6f742074697020796f7572206f776e20706f737400000000600082015250565b60006113db601c83610ae3565b91506113e6826113a5565b602082019050919050565b6000602082019050818103600083015261140a816113ce565b9050919050565b600061141c82610b9e565b915061142783610b9e565b925082820190508082111561143f5761143e610fb2565b5b92915050565b600060c08201905061145a6000830189610c01565b818103602083015261146c8188610b2f565b905081810360408301526114808187610b2f565b905061148f6060830186610c01565b61149c6080830185610c01565b6114a960a0830184610c42565b97965050505050505056fea264697066735822122031c1bf736bd624ae2eff6c6682216a875cdb622973f4c6d2fdb57a88f6dd8ff064736f6c63430008110033",
  "linkReferences": {},
  "deployedLinkReferences": {}
}